:020000040800F2
:10000000A8080020D9000008D90A00087D0A0008C5
:1000100000000000000000000000000000000000E0
:10002000000000000000000000000000DD0A0008E1
:100030000000000000000000DB0A0008DF0A0008E2
:10004000EB000008EB000008EB000008EB000008E4
:10005000EB000008EB000008EB000008EB000008D4
:10006000EB000008EB000008EB000008EB000008C4
:10007000EB000008EB000008EB000008EB000008B4
:10008000EB000008EB000008EB000008EB000008A4
:10009000EB000008EB000008EB000008EB00000894
:1000A000EB000008EB000008EB000008EB00000884
:1000B000EB000008EB000008EB000008EB00000874
:1000C0000448854600F090F800480047D30B00082C
:1000D000C046C046A808002004488047044800479E
:1000E000FEE7FEE7FEE7FEE7FEE7FEE73F0B000860
:1000F000C100000830B50B46014600202022012433
:1001000009E00D46D5409D4205D31D469540491B4B
:100110002546954040191546521E002DF1DC30BD94
:10012000F0B51FB40646002082B005464024019178
:1001300000901BE0019922460F46304600F020F85F
:10014000049A059B801A994110D3104619462246FD
:1001500000F039F8361A8F4101972246012000211C
:10016000009F00F030F838184D4100902046641E82
:100170000028DFDC019B00982946324607B0F0BD1D
:1001800010B5202A04DB0846203AD040002110BDDB
:100190000B46D340D0402024A21A91400843194670
:1001A00010BDD2B201E00270401C491EFBD2704764
:1001B0000022F6E710B513460A4604461946FFF733
:1001C000F0FF204610BD10B5202A04DB0146203A7E
:1001D0009140002010BD914020239C1A0346E3402B
:1001E0001943904010BD0000064C0125064E05E065
:1001F000E36807CC2B430C3C98471034B442F7D348
:10020000FFF762FFF80D0008180E000870B58C1893
:100210000578401C6B075B0F01D10378401C2A1145
:1002200006D10278401C03E006780E70401C491C81
:100230005B1EF9D12B0705D40023521E0DD40B7081
:10024000491CFAE70378401CCB1A921C03E01D7886
:100250000D70491C5B1C521EF9D5A142D8D3002059
:1002600070BD0000FCB500230124A6E027462A4605
:100270009F403A4073D04D68012D05D0022D03D028
:10028000112D01D0122D16D185680326AC465D00D4
:10029000AE46AE406546B543AC46CE687546AE4008
:1002A00065462E43866046680D79BE43ED06ED0F28
:1002B0009D4035434560C6685F000325BD40AE469E
:1002C000AE4335468E68BE402E43C6604E68022E51
:1002D00001D0122E14D1DE08B60036180196366A07
:1002E0005D07B446EE0E0F25B54000966646AE4358
:1002F000B4460D69009EB54066462E43019D2E62B0
:1003000006687546AE430D79AD07AD0FBD40354368
:1003100005604D68ED004FD52B4DAE692643AE61AB
:10032000AD699E08ED07ED0F0095284DB6007519D3
:10033000AC46AD689E07360F0F27B740BD4309276F
:10034000FF06B84201D1002715E0214FB84201D184
:10035000012710E01F4FB84202D102270BE02BE02B
:100360001D4FB84201D1032705E01C4FB84201D10F
:10037000042700E00527B7402F436546AF60184EBD
:1003800035684F689543FF0300D5154335607568A0
:100390004F689543BF0300D515437560B5684F6836
:1003A0009543FF0200D51543B560F5684F68954346
:1003B000BF0200D51543F5605B1C0A681546DA409C
:1003C00000D053E7FCBD00000010024000000140D7
:1003D0000004004800080048000C004800100048D5
:1003E00000040140002A01D081617047816270479A
:1003F0000148806870470000F803002002488168C7
:100400000278891881607047F803002010B506480B
:100410000168102211430160002000F007F800F08D
:1004200027F8002010BD00000020024070B50446EF
:100430000D4D7D202978C000FFF75CFE01460B487A
:100440000068FFF757FE00F001FB002809D1042CDB
:1004500007D200222146401E00F01EF800206C60EA
:1004600070BD012070BD0000F803002004040020CE
:1004700008B50848816901221143816181691140F1
:100480000091C26901040A43C261C069084000903A
:1004900008BD00000010024010B500F069FB10BD5F
:1004A000F8B50F4606005FD03D4D2868C007C00F65
:1004B000B84209D2286840084000384328602868BC
:1004C000C007C00FB8424FD13068364C81070CD5F9
:1004D000400704D56068072109020843606060682E
:1004E000F0218843B168084360603078C0072CD0A1
:1004F0007068012810D0022811D0032812D021687A
:100500008907002930DA6168890889000143616040
:10051000FFF76EFF009011E021688903F1E7216881
:100520008901EEE7616BC903EBE7FFF761FF009913
:10053000411A1D48814201D90320F8BD60680C2191
:100540000840716889008842EFD12868C007C00F51
:10055000B8420BD928684008400038432860286812
:10056000C007C00FB84201D00120F8BD3078400765
:1005700006D56068072109028843F1680843606076
:1005800000F018F86168094A0906090F515CC84073
:10059000074908600020FFF749FF0020F8BD000070
:1005A000002002400010024088130000E60D000801
:1005B0000404002030B519A30FCB89B06C460FC4DA
:1005C0001AA30FCB0FC41D4A51680C200B460340E1
:1005D0001B48042B05D01B4D082B04D00C2B00D13D
:1005E000284609B030BD8B021B0F6C46E45CD26A12
:1005F00004AB1207120FC9039A5C890F022901D0BC
:10060000032901D0002301E0002328460021FFF741
:1006100087FD214600F094FAE3E700000203040599
:10062000060708090A0B0C0D0E0F10100102030437
:1006300005060708090A0B0C0D0E0F1000100240EA
:1006400000127A00006CDC02FEB5040070D0207845
:10065000F94EFA4DC00748D068680007800F01289E
:100660001FD068680007800F022804D16868C003A3
:10067000800F022815D06168012919D0012080045B
:10068000002901D0052917D02968B14329602968BC
:1006900081432960606800281BD0FFF7A9FE074648
:1006A00013E02868800320D560680028CED01CE0C5
:1006B000286830432860EDE7296801432960F7E79F
:1006C000FFF796FEC01B642870D828688003F7D512
:1006D0000BE0FFF78DFE074604E0FFF789FEC01B25
:1006E0006428F1D828688003F7D4207880073FD5A4
:1006F00068680007800F14D068680007800F022820
:1007000004D16868C003800F01280AD0E06800287F
:1007100028681ED0012108432860FFF769FE0746BC
:100720000CE0286880070CD5E068012800D108E0BB
:1007300080E1FFF75DFEC01B0228C5D8286880074E
:10074000F7D52868F82188432169C9000843286043
:100750000EE0400840002860FFF74AFE074604E02C
:10076000FFF746FEC01B0228AED828688007F7D4E2
:100770002078000723D5E0690028686A0FD001219E
:1007800008436862FFF734FE074604E0FFF730FED7
:10079000C01B022898D8686A8007F7D50FE0400888
:1007A00040006862FFF724FE074605E0C3E0FFF75C
:1007B0001FFEC01B022887D8686A8007F7D42078FC
:1007C00004274007002861DA00200190E869C00092
:1007D00008D4E969B8060143E961E96901400120EB
:1007E0000091019096480168C90511D401688215ED
:1007F00011430160FFF7FCFD009005E0FFF7F8FDF5
:100800000099401A642898D88D480068C005F5D52D
:10081000A06801280AD0002801D0052811D0286A34
:10082000400840002862286AB84302E0286A012193
:1008300008432862A068002812D0FFF7D9FD009075
:100840000AE0286A38432862F0E7FFF7D1FD0099F3
:10085000411A7C4881426ED8286A8007F5D50DE0A0
:10086000FFF7C6FD009006E0FFF7C2FD0099411AB0
:10087000744881425FD8286A8007F5D4019800281F
:1008800004D0E969012000078143E9612078C006AE
:1008900035D5606901280CD0401D686B24D03843E1
:1008A0006863686B400840006863FFF7A1FD074676
:1008B00022E0686B38436863686B01210843686312
:1008C000FFF796FD074604E0FFF792FDC01B0228E4
:1008D00031D8686B8007F7D5686BF8218843A16928
:1008E000C900084368630AE0B8436863F4E7FFF7A8
:1008F0007FFDC01B02281ED8686B8007F7D42078C4
:10090000800637D568680007800F032814D0686810
:100910000007800F022804D16868C003800F0328F5
:100920000AD0206A0028686B16D030436863FFF74E
:100930005FFD06460CE062E0686BC0031AD5206AD2
:10094000012877D116E0FFF753FD801B022856D807
:10095000686BC003F7D50DE0B0436863FFF748FD4F
:10096000064604E0FFF744FD801B022847D8686B69
:10097000C003F7D4606A002866D069680907890F48
:10098000022942D0012636060228286805D0B04345
:100990002860FFF72DFD044633E0B0432860FFF7E1
:1009A00027FD074604E0FFF723FDC01B022826D8D9
:1009B00028688001F7D4E86A216B00090001084328
:1009C000E862A16AE06A084369687B22D203914326
:1009D00008436860286830432860FFF709FD044633
:1009E00004E0FFF705FD001B022808D828688001F5
:1009F000F7D529E0FFF7FCFC001B022801D90320F2
:100A0000FEBD28688001F5D41EE00128F8D0686892
:100A1000E96A0322D203A36A02409A420AD1090773
:100A2000226B090F914205D10F2189040840E16A28
:100A3000884209D00120FEBD0000010000100240E4
:100A400000700040881300000020F4E7094910B549
:100A5000401E884201D9012010BD074C606103216E
:100A6000081F00F085F80020A06107202061002009
:100A700010BD0000FFFFFF0000E000E0FEE7000007
:100A800010B586B014216846FFF792FB1148426901
:100A9000012189050A43426142690A40059242697F
:100AA00049110A434261406909240840E40605905F
:100AB000002231212046FFF795FC312000900021D3
:100AC000012002910391019069462046FFF7CAFB7D
:100AD00006B010BD00100240FEE77047704710B529
:100AE000FFF78CFC10BD30B591B034216846FFF79C
:100AF0005FFB00250D95022401200E950390102028
:100B000009940F9504900094C0020A90109540013A
:100B10000B900C956846FFF797FD002801D072B640
:100B2000FEE707200DA931C101210DA81095FFF79F
:100B3000B7FC002801D072B6FEE711B030BD704797
:100B4000F8B5040C8BB2264682B25E430D0C1046FB
:100B5000370C5843360480190021794116466E43FC
:100B6000370C36048019794126466E438919F8BD41
:100B70008307FF22DB0E9A408907090E994000285F
:100B800008DB830809489B001B181868904308433A
:100B9000186070470007000F0838830804489B005E
:100BA0001B18D86990430843D861704700E400E0FF
:100BB00000ED00E002E008C8121F08C1002AFAD1C7
:100BC00070477047002001E001C1121F002AFBD1CD
:100BD0007047FFF71BFCFFF786FFFFF751FF03206D
:100BE00000F028F80421412000F0C6F8032142203B
:100BF00000F0C2F80221432000F0BEF80121442099
:100C000000F0BAF8FEE7000010B50024E0B20021C1
:100C100000F066F8641C202CF8DB054B00201A4617
:100C20000146503219541154401C5028FADB10BDB3
:100C30000804002010B504460021092000F0B4F893
:100C400007210B2000F0B0F801210C2000F0ACF8D7
:100C500000210F2000F0A8F8FFF7D6FF21460A2058
:100C600000F0A2F810BD0000F8B50C4601211B4EA3
:100C70008140305D002A01D0084300E088433055B0
:100C80006007400F00900920E70800221021C006ED
:100C9000FFF7A8FB0320C71B00980025461CAF42A6
:100CA00005D1304600F04CF80C48005D03E0002010
:100CB00000F046F8002000F043F86D1C042DEEDB38
:100CC0000924E406002210212046FFF78BFB0122B5
:100CD00010212046FFF786FBF8BD00000804002025
:100CE000F3B583B003980026C008029003980D4620
:100CF0004007400F019002980091C7000298864279
:100D00000CD1FC1D07E0EA09E1B20198FFF7ACFF46
:100D10006806050E641EA742F5DD05E0002000F020
:100D20000FF8002000F00CF8761C042EE6DB034AD6
:100D300003990098505405B0F0BD000058040020FD
:100D400070B5002409260546F6060022202130460B
:100D5000FFF748FBEA09D20101213046FFF742FBC9
:100D60006806050E012220213046FFF73BFB641C7C
:100D7000082CEADB70BD0000F8B5C4000948062560
:100D8000025DCE00641CA71808E00648015D7019DA
:100D90000838C0B2FFF7A4FF641C6D1EA742F4DC44
:100DA000F8BD000000000020F8B509250E460746F2
:100DB000ED06002210212846FFF714FB00243846D8
:100DC000FFF7BEFF3046FFF7BBFF641C042CF6DBC9
:100DD000002210212846FFF705FB0122102128469A
:100DE000FFF700FBF8BD000000000000000001025A
:100DF0000304060708090000180E00080000002080
:100E0000080400000C020008EC1000080804002090
:100E1000A0040000C40B0008812F053E5B4F5B3E21
:100E2000082C6B4F6B081E1C3E7C3E1C082E183C89
:100E30007E3C18102C577D57101D1C5E7F5E0812DB
:100E4000042A1817113F05FFE7C3E7FF105A2410C3
:100E50002ADB101F0530483A060E081E262979297C
:100E600026084E407F050507081B253F081E5A3CF3
:100E7000E73C5A081E7F3E1C1C08081E081C1C3E2E
:100E80007F081E14227F221408135F5F1903111EAE
:100E90000506097F01182E046689956A602A60019B
:100EA00019082E94A2FFA294382C047E04402E1020
:100EB000207E2010105B082A502B2A08081B1E10C9
:100EC0000119081B0C1E0229982D383E3830582570
:100ED0000E3E0E0672031A016C4113030719A62970
:100EE000881A7F0219081E242A7F2A12081E23133B
:100EF000086462081E3649562050283B08073B3DCF
:100F0000031C2241083C41221C383E2A1C7F1C2A1B
:100F1000882A3E801C0380706E39101901212A0234
:100F2000BD29101E2010080402081E3E5149453EEE
:100F3000283C427F40181E7249494946081E2141FB
:100F4000494D33082D1814127FC01E2745454539D9
:100F5000081E3C4A494931081D41211109AA19902E
:100F60001C494936081E464949291EC819B441542E
:100F70000280683C040814A12B05140119101C41BF
:100F8000221487112F050201590906801D415D5960
:100F90004E081E7C1211127C085A7F502E3E414191
:100FA000412210190819A0391819494F057F09095C
:100FB0000901202B51731019D71A7FC02B417F676D
:100FC00019D82C40413F204A7F791C057F400129D8
:100FD000081C021C02282E057F040810082960390D
:100FE00058195049883C51215E101C192946081A8D
:100FF00026701A32081E03017F0103081A3F471AA0
:101000003F083E1F2040201F103A38102E6314085E
:101010001463282C047804281E6159494D43901903
:10102000B839901A02702A20A01A417619101E04AD
:101030000201020408299719984D03030708B83CD8
:10104000545478A81D28444438082D384444441882
:1010500019082A28B02638545454182E04087E093A
:1010600002183E18A4A49C78E81B0404081C03443E
:101070007D3E19202D4080807A082C7F1028403C2E
:1010800003417F181B057CA029304A7C3039602938
:10109000681DFC182424582A05075AFC2019921BA5
:1010A0000548701A24481C043F4407111F053C40A2
:1010B00040207C083E1C2040201C101C30403C0876
:1010C0003B4428692E054C909090201D4464544C5C
:1010D0001045030836416301774C034136E81D0291
:0C10E000010204C12A01A48113127A004D
:04000005080000C12E
:00000001FF
