:020000040800F2
:1000000078040020D9000008D50A0008490A000831
:1000100000000000000000000000000000000000E0
:10002000000000000000000000000000D90A0008E5
:100030000000000000000000D70A0008DB0A0008EA
:10004000EB000008EB000008EB000008EB000008E4
:10005000EB000008EB000008EB000008EB000008D4
:10006000EB000008EB000008EB000008EB000008C4
:10007000EB000008EB000008EB000008EB000008B4
:10008000EB000008EB000008EB000008EB000008A4
:10009000EB000008EB000008EB000008EB00000894
:1000A000EB000008EB000008EB000008EB00000884
:1000B000EB000008EB000008EB000008EB00000874
:1000C0000448854600F090F800480047D90B000826
:1000D000C046C046780400200448804704480047D2
:1000E000FEE7FEE7FEE7FEE7FEE7FEE7410B00085E
:1000F000C100000830B50B46014600202022012433
:1001000009E00D46D5409D4205D31D469540491B4B
:100110002546954040191546521E002DF1DC30BD94
:10012000F0B51FB40646002082B005464024019178
:1001300000901BE0019922460F46304600F020F85F
:10014000049A059B801A994110D3104619462246FD
:1001500000F039F8361A8F4101972246012000211C
:10016000009F00F030F838184D4100902046641E82
:100170000028DFDC019B00982946324607B0F0BD1D
:1001800010B5202A04DB0846203AD040002110BDDB
:100190000B46D340D0402024A21A91400843194670
:1001A00010BDD2B201E00270401C491EFBD2704764
:1001B0000022F6E710B513460A4604461946FFF733
:1001C000F0FF204610BD10B5202A04DB0146203A7E
:1001D0009140002010BD914020239C1A0346E3402B
:1001E0001943904010BD0000064C0125064E05E065
:1001F000E36807CC2B430C3C98471034B442F7D348
:10020000FFF762FFBC0C0008DC0C000870B5044668
:1002100000F0D4F80546601C02D004480078241889
:1002200000F0CCF8401BA042FAD370BD680000205B
:10023000FCB500230124A6E027462A469F403A4009
:1002400073D04D68012D05D0022D03D0112D01D0A2
:10025000122D16D185680326AC465D00AE46AE4031
:100260006546B543AC46CE687546AE4065462E43FE
:10027000866046680D79BE43ED06ED0F9D4035431F
:100280004560C6685F000325BD40AE46AE433546B7
:100290008E68BE402E43C6604E68022E01D0122EDC
:1002A00014D1DE08B60036180196366A5D07B446EA
:1002B000EE0E0F25B54000966646AE43B4460D6976
:1002C000009EB54066462E43019D2E620668754627
:1002D000AE430D79AD07AD0FBD40354305604D68A8
:1002E000ED004FD52B4DAE692643AE61AD699E083A
:1002F000ED07ED0F0095284DB6007519AC46AD68B9
:100300009E07360F0F27B740BD430927FF06B842A7
:1003100001D1002715E0214FB84201D1012710E09B
:100320001F4FB84202D102270BE02BE01D4FB8420D
:1003300001D1032705E01C4FB84201D1042700E09A
:100340000527B7402F436546AF60184E35684F68A4
:100350009543FF0300D51543356075684F68954395
:10036000BF0300D515437560B5684F689543FF021C
:1003700000D51543B560F5684F689543BF0200D5B9
:100380001543F5605B1C0A681546DA4000D053E758
:10039000FCBD0000001002400000014000040048C5
:1003A00000080048000C004800100048000401400C
:1003B000002A01D0816170478162704701488068DE
:1003C00070470000680000200248816802788918A0
:1003D000816070476800002010B50648016810224F
:1003E00011430160002000F007F800F027F800201A
:1003F00010BD00000020024070B504460D4D7D2068
:100400002978C000FFF776FE01460B480068FFF729
:1004100071FE00F001FB002809D1042C07D2002254
:100420002146401E00F01EF800206C6070BD0120C7
:1004300070BD0000680000207400002008B5084866
:100440008169012211438161816911400091C26972
:1004500001040A43C261C0690840009008BD000061
:100460000010024010B500F085FB10BDF8B50F4636
:1004700006005FD03D4D2868C007C00FB84209D2C2
:10048000286840084000384328602868C007C00F2B
:10049000B8424FD13068364C81070CD5400704D59F
:1004A000606807210902084360606068F0218843A2
:1004B000B168084360603078C0072CD070680128AC
:1004C00010D0022811D0032812D0216889070029F2
:1004D00030DA61688908890001436160FFF76EFFC7
:1004E000009011E021688903F1E721688901EEE7B6
:1004F000616BC903EBE7FFF761FF0099411A1D48E3
:10050000814201D90320F8BD60680C210840716860
:1005100089008842EFD12868C007C00FB8420BD9C4
:10052000286840084000384328602868C007C00F8A
:10053000B84201D00120F8BD3078400706D5606888
:10054000072109028843F1680843606000F018F849
:100550006168094A0906090F515CC84007490860EB
:100560000020FFF749FF0020F8BD000000200240F6
:100570000010024088130000AC0C0008740000203A
:1005800030B519A30FCB89B06C460FC41AA30FCB9B
:100590000FC41D4A51680C200B4603401B48042B16
:1005A00005D01B4D082B04D00C2B00D1284609B0D8
:1005B00030BD8B021B0F6C46E45CD26A04AB1207A1
:1005C000120FC9039A5C890F022901D0032901D0B7
:1005D000002301E0002328460021FFF7A1FD21466A
:1005E00000F0AFFAE3E7000002030405060708097C
:1005F0000A0B0C0D0E0F101001020304050607086C
:10060000090A0B0C0D0E0F100010024000127A00A8
:10061000006CDC02FEB5040070D02078F94EFA4D73
:10062000C00748D068680007800F01281FD068689D
:100630000007800F022804D16868C003800F0228D9
:1006400015D06168012919D001208004002901D04A
:10065000052917D02968B143296029688143296099
:10066000606800281BD0FFF7A9FE074613E0286842
:10067000800320D560680028CED01CE02868304375
:100680002860EDE7296801432960F7E7FFF796FE48
:10069000C01B642870D828688003F7D50BE0FFF7EB
:1006A0008DFE074604E0FFF789FEC01B6428F1D8E1
:1006B00028688003F7D4207880073FD56868000752
:1006C000800F14D068680007800F022804D1686882
:1006D000C003800F01280AD0E068002828681ED0D7
:1006E000012108432860FFF769FE07460CE02868EF
:1006F00080070CD5E068012800D108E080E1FFF711
:100700005DFEC01B0228C5D828688007F7D5286879
:10071000F82188432169C900084328600EE0400899
:1007200040002860FFF74AFE074604E0FFF746FE58
:10073000C01B0228AED828688007F7D420780007AD
:1007400023D5E0690028686A0FD001210843686258
:10075000FFF734FE074604E0FFF730FEC01B022817
:1007600098D8686A8007F7D50FE0400840006862B3
:10077000FFF724FE074605E0C3E0FFF71FFEC01B9E
:10078000022887D8686A8007F7D4207804274007B2
:10079000002861DA00200190E869C00008D4E96906
:1007A000B8060143E961E969014001200091019027
:1007B00096480168C90511D401688215114301608A
:1007C000FFF7FCFD009005E0FFF7F8FD0099401AE7
:1007D000642898D88D480068C005F5D5A068012820
:1007E0000AD0002801D0052811D0286A400840000E
:1007F0002862286AB84302E0286A01210843286277
:10080000A068002812D0FFF7D9FD00900AE0286AFE
:1008100038432862F0E7FFF7D1FD0099411A7C4880
:1008200081426ED8286A8007F5D50DE0FFF7C6FD36
:10083000009006E0FFF7C2FD0099411A744881421A
:100840005FD8286A8007F5D40198002804D0E969A8
:10085000012000078143E9612078C00635D5606931
:1008600001280CD0401D686B24D038436863686B46
:10087000400840006863FFF7A1FD074622E0686B6F
:1008800038436863686B012108436863FFF796FD8E
:10089000074604E0FFF792FDC01B022831D8686BC1
:1008A0008007F7D5686BF8218843A169C900084320
:1008B00068630AE0B8436863F4E7FFF77FFDC01B95
:1008C00002281ED8686B8007F7D42078800637D5B9
:1008D00068680007800F032814D068680007800F3D
:1008E000022804D16868C003800F03280AD0206A58
:1008F0000028686B16D030436863FFF75FFD06463B
:100900000CE062E0686BC0031AD5206A012877D139
:1009100016E0FFF753FD801B022856D8686BC00312
:10092000F7D50DE0B0436863FFF748FD064604E0E5
:10093000FFF744FD801B022847D8686BC003F7D43B
:10094000606A002866D069680907890F022942D0C9
:10095000012636060228286805D0B0432860FFF734
:100960002DFD044633E0B0432860FFF727FD07461E
:1009700004E0FFF723FDC01B022826D82868800169
:10098000F7D4E86A216B000900010843E862A16A14
:10099000E06A084369687B22D20391430843686098
:1009A000286830432860FFF709FD044604E0FFF79C
:1009B00005FD001B022808D828688001F7D529E02A
:1009C000FFF7FCFC001B022801D90320FEBD2868AC
:1009D0008001F5D41EE00128F8D06868E96A032296
:1009E000D203A36A02409A420AD10907226B090F77
:1009F000914205D10F2189040840E16A884209D05B
:100A00000120FEBD00000100001002400070004007
:100A1000881300000020F4E7094910B5401E884201
:100A200001D9012010BD074C60610321081F00F0AF
:100A3000A1F80020A06107202061002010BD000067
:100A4000FFFFFF0000E000E0FEE70000F0B587B028
:100A500014216846FFF7ACFB1C4842690121890557
:100A60000A43426142690A400592426949110A43B8
:100A7000426142690A400592426989000A43426123
:100A8000406909260840F6060590002230213046CC
:100A9000FFF78EFC0E4F002210213846FFF788FC2E
:100AA00030200024012500900294694601950394AA
:100AB0003046FFF7BDFB1020009002946946019577
:100AC00003943846FFF7B4FB07B0F0BD00100240B6
:100AD00000080048FEE77047704710B5FFF774FC48
:100AE00010BD30B591B034216846FFF761FB002599
:100AF0000D95022401200E950390102009940F9566
:100B000004900094C0020A900320109580040B907A
:100B10000C956846FFF77EFD002801D072B6FEE70F
:100B200007200D9090200F900E94012110950DA894
:100B3000FFF79CFC002801D072B6FEE711B030BD73
:100B40007047F8B5040C8BB2264682B25E430D0C9A
:100B50001046370C58433604801900217941164657
:100B60006E43370C36048019794126466E43891945
:100B7000F8BD00008307FF22DB0E9A408907090EAB
:100B80009940002808DB830809489B001B18186857
:100B900090430843186070470007000F0838830827
:100BA00004489B001B18D86990430843D8617047DC
:100BB00000E400E000ED00E002E008C8121F08C1F8
:100BC000002AFAD170477047002001E001C1121FCE
:100BD000002AFBD170470000FFF7FEFBFFF781FF03
:100BE000FFF734FF00F018F80A4E00250124E80052
:100BF000871938192038C17FE0B200F041F8641C31
:100C0000092CF6DBFF20F530FFF700FB6D1C0D2DE6
:100C1000ECDBEAE70000002010B50021092000F01D
:100C20002FF803210A2000F02BF807210B2000F0F9
:100C300027F801210C2000F023F800210F2000F0FC
:100C40001FF810BDF8B5002409260C4F0546F6061E
:100C5000002220213046FFF7ABFBEA09D201102128
:100C60003846FFF7A5FB6806050E01222021304615
:100C7000FFF79EFB641C082CEADBF8BD0008004867
:100C800070B509240E460546E406002210212046D0
:100C9000FFF78EFB2846FFF7D5FF3046FFF7D2FF60
:100CA000012210212046FFF783FB70BD00000000E9
:100CB000000000000102030406070809DC0C00081C
:100CC0000000002078000000B80B0008540D000858
:100CD0007800002000040000C80B0008180C060370
:100CE00003060C180000000000000000180C0603AA
:100CF00003060C180000000000000000180C06039A
:100D000003060C180000000000000000183060C04E
:100D1000C06030180000000000000000183060C003
:100D2000C06030180000000000000000183060C0F3
:100D3000C06030180000000000000000000000004B
:100D4000000000000100000004000000000000009E
:040D500000127A0013
:04000005080000C12E
:00000001FF
